{
  "contractName": "CrossSync",
  "abi": [
    {
      "inputs": [],
      "payable": false,
      "stateMutability": "nonpayable",
      "type": "constructor"
    },
    {
      "constant": false,
      "inputs": [],
      "name": "deposit",
      "outputs": [],
      "payable": true,
      "stateMutability": "payable",
      "type": "function"
    },
    {
      "constant": false,
      "inputs": [
        {
          "name": "addr",
          "type": "address"
        },
        {
          "name": "value",
          "type": "uint256"
        }
      ],
      "name": "refund",
      "outputs": [],
      "payable": false,
      "stateMutability": "nonpayable",
      "type": "function"
    },
    {
      "constant": false,
      "inputs": [
        {
          "name": "overheadPercentage",
          "type": "uint256"
        }
      ],
      "name": "addExchangeMoney",
      "outputs": [],
      "payable": true,
      "stateMutability": "payable",
      "type": "function"
    },
    {
      "constant": false,
      "inputs": [
        {
          "name": "amount",
          "type": "uint256"
        },
        {
          "name": "overheadPercentage",
          "type": "uint256"
        }
      ],
      "name": "addExchangeMoneyFromPool",
      "outputs": [],
      "payable": false,
      "stateMutability": "nonpayable",
      "type": "function"
    },
    {
      "constant": false,
      "inputs": [
        {
          "name": "addr",
          "type": "address"
        },
        {
          "name": "amount",
          "type": "uint256"
        }
      ],
      "name": "redeemExchangeMoney",
      "outputs": [],
      "payable": false,
      "stateMutability": "nonpayable",
      "type": "function"
    },
    {
      "constant": false,
      "inputs": [
        {
          "name": "addr",
          "type": "address"
        },
        {
          "name": "value",
          "type": "uint256"
        }
      ],
      "name": "transferEquivalentAmount",
      "outputs": [],
      "payable": false,
      "stateMutability": "nonpayable",
      "type": "function"
    },
    {
      "constant": true,
      "inputs": [
        {
          "name": "value",
          "type": "uint256"
        },
        {
          "name": "overheadPercentage",
          "type": "uint256"
        }
      ],
      "name": "overheadPercentageValue",
      "outputs": [
        {
          "name": "",
          "type": "uint256"
        }
      ],
      "payable": false,
      "stateMutability": "pure",
      "type": "function"
    },
    {
      "constant": false,
      "inputs": [
        {
          "name": "add",
          "type": "address"
        },
        {
          "name": "interestRate",
          "type": "uint256"
        },
        {
          "name": "timeInYears",
          "type": "uint256"
        }
      ],
      "name": "updateBalance",
      "outputs": [],
      "payable": false,
      "stateMutability": "nonpayable",
      "type": "function"
    },
    {
      "constant": true,
      "inputs": [
        {
          "name": "add",
          "type": "address"
        }
      ],
      "name": "moneyRecievedByLiquidator",
      "outputs": [
        {
          "name": "",
          "type": "uint256"
        }
      ],
      "payable": false,
      "stateMutability": "view",
      "type": "function"
    },
    {
      "constant": true,
      "inputs": [],
      "name": "getMoney",
      "outputs": [
        {
          "name": "money",
          "type": "uint256"
        }
      ],
      "payable": false,
      "stateMutability": "view",
      "type": "function"
    },
    {
      "constant": true,
      "inputs": [
        {
          "name": "addr",
          "type": "address"
        }
      ],
      "name": "getUserDetails",
      "outputs": [
        {
          "name": "valueToThePool",
          "type": "uint256"
        },
        {
          "name": "valueForExchange",
          "type": "uint256"
        },
        {
          "name": "pendingExchangeMoney",
          "type": "uint256"
        },
        {
          "name": "userAddress",
          "type": "address"
        }
      ],
      "payable": false,
      "stateMutability": "view",
      "type": "function"
    },
    {
      "constant": true,
      "inputs": [],
      "name": "returnOverheadValues",
      "outputs": [
        {
          "name": "",
          "type": "uint256"
        }
      ],
      "payable": false,
      "stateMutability": "view",
      "type": "function"
    },
    {
      "constant": true,
      "inputs": [],
      "name": "returnTotolPoolMoney",
      "outputs": [
        {
          "name": "",
          "type": "uint256"
        }
      ],
      "payable": false,
      "stateMutability": "view",
      "type": "function"
    }
  ],
  "bytecode": "0x608060405234801561001057600080fd5b50336000806101000a81548173ffffffffffffffffffffffffffffffffffffffff021916908373ffffffffffffffffffffffffffffffffffffffff160217905550611266806100606000396000f3fe6080604052600436106100c25760003560e01c8063b0b4696f1161007f578063d0e30db011610059578063d0e30db0146103c0578063d878d103146103ca578063dedc8dfe146103f5578063f828f5f41461043a576100c2565b8063b0b4696f146102c1578063ca988c34146102ef578063cc3d967b1461031a576100c2565b80630d0ef174146100c75780633d1804fa14610120578063410085df1461017b5780637c091597146101d657806387d5173d1461023157806398e1b41014610296575b600080fd5b3480156100d357600080fd5b5061010a600480360360408110156100ea57600080fd5b81019080803590602001909291908035906020019092919050505061049f565b6040518082815260200191505060405180910390f35b34801561012c57600080fd5b506101796004803603604081101561014357600080fd5b81019080803573ffffffffffffffffffffffffffffffffffffffff169060200190929190803590602001909291905050506104bb565b005b34801561018757600080fd5b506101d46004803603604081101561019e57600080fd5b81019080803573ffffffffffffffffffffffffffffffffffffffff16906020019092919080359060200190929190505050610689565b005b3480156101e257600080fd5b5061022f600480360360408110156101f957600080fd5b81019080803573ffffffffffffffffffffffffffffffffffffffff169060200190929190803590602001909291905050506107eb565b005b34801561023d57600080fd5b506102946004803603606081101561025457600080fd5b81019080803573ffffffffffffffffffffffffffffffffffffffff1690602001909291908035906020019092919080359060200190929190505050610985565b005b3480156102a257600080fd5b506102ab610a37565b6040518082815260200191505060405180910390f35b6102ed600480360360208110156102d757600080fd5b8101908080359060200190929190505050610a56565b005b3480156102fb57600080fd5b50610304610ada565b6040518082815260200191505060405180910390f35b34801561032657600080fd5b506103696004803603602081101561033d57600080fd5b81019080803573ffffffffffffffffffffffffffffffffffffffff169060200190929190505050610ae4565b604051808581526020018481526020018381526020018273ffffffffffffffffffffffffffffffffffffffff1673ffffffffffffffffffffffffffffffffffffffff16815260200194505050505060405180910390f35b6103c8610c28565b005b3480156103d657600080fd5b506103df610c8a565b6040518082815260200191505060405180910390f35b34801561040157600080fd5b506104386004803603604081101561041857600080fd5b810190808035906020019092919080359060200190929190505050610d56565b005b34801561044657600080fd5b506104896004803603602081101561045d57600080fd5b81019080803573ffffffffffffffffffffffffffffffffffffffff169060200190929190505050610ee3565b6040518082815260200191505060405180910390f35b6000806064838502816104ae57fe5b0490508091505092915050565b6000809054906101000a900473ffffffffffffffffffffffffffffffffffffffff1673ffffffffffffffffffffffffffffffffffffffff163373ffffffffffffffffffffffffffffffffffffffff161461057d576040517f08c379a00000000000000000000000000000000000000000000000000000000081526004018080602001828103825260138152602001807f536f727279206e6f74207065726d69747465640000000000000000000000000081525060200191505060405180910390fd5b80600360008473ffffffffffffffffffffffffffffffffffffffff1673ffffffffffffffffffffffffffffffffffffffff168152602001908152602001600020600101541015610635576040517f08c379a00000000000000000000000000000000000000000000000000000000081526004018080602001828103825260128152602001807f696e73756666696369656e742066756e6473000000000000000000000000000081525060200191505060405180910390fd5b80600360008473ffffffffffffffffffffffffffffffffffffffff1673ffffffffffffffffffffffffffffffffffffffff168152602001908152602001600020600101600082825403925050819055505050565b80600360008473ffffffffffffffffffffffffffffffffffffffff1673ffffffffffffffffffffffffffffffffffffffff1681526020019081526020016000206000015411610740576040517f08c379a000000000000000000000000000000000000000000000000000000000815260040180806020018281038252601c8152602001807f496e73756666696369656e742066756e6473207265717565737465640000000081525060200191505060405180910390fd5b8173ffffffffffffffffffffffffffffffffffffffff166108fc829081150290604051600060405180830381858888f19350505050158015610786573d6000803e3d6000fd5b5080600360008473ffffffffffffffffffffffffffffffffffffffff1673ffffffffffffffffffffffffffffffffffffffff16815260200190815260200160002060000160008282540392505081905550806002600082825403925050819055505050565b6000809054906101000a900473ffffffffffffffffffffffffffffffffffffffff1673ffffffffffffffffffffffffffffffffffffffff163373ffffffffffffffffffffffffffffffffffffffff16146108ad576040517f08c379a00000000000000000000000000000000000000000000000000000000081526004018080602001828103825260138152602001807f536f727279206e6f74207065726d69747465640000000000000000000000000081525060200191505060405180910390fd5b803073ffffffffffffffffffffffffffffffffffffffff1631101561093a576040517f08c379a00000000000000000000000000000000000000000000000000000000081526004018080602001828103825260178152602001807f496e73756666696369656e7420436f6c6c61746f72616c00000000000000000081525060200191505060405180910390fd5b8173ffffffffffffffffffffffffffffffffffffffff166108fc829081150290604051600060405180830381858888f19350505050158015610980573d6000803e3d6000fd5b505050565b6109ec61099b8284610f7990919063ffffffff16565b600360008673ffffffffffffffffffffffffffffffffffffffff1673ffffffffffffffffffffffffffffffffffffffff16815260200190815260200160002060000154610f7990919063ffffffff16565b600360008573ffffffffffffffffffffffffffffffffffffffff1673ffffffffffffffffffffffffffffffffffffffff16815260200190815260200160002060000181905550505050565b60003073ffffffffffffffffffffffffffffffffffffffff1631905090565b6000610a62348361049f565b9050610a778134610fff90919063ffffffff16565b600360003373ffffffffffffffffffffffffffffffffffffffff1673ffffffffffffffffffffffffffffffffffffffff16815260200190815260200160002060010160008282540192505081905550806001600082825401925050819055505050565b6000600254905090565b600080600080600360008673ffffffffffffffffffffffffffffffffffffffff1673ffffffffffffffffffffffffffffffffffffffff16815260200190815260200160002060000154600360008773ffffffffffffffffffffffffffffffffffffffff1673ffffffffffffffffffffffffffffffffffffffff16815260200190815260200160002060010154600360008873ffffffffffffffffffffffffffffffffffffffff1673ffffffffffffffffffffffffffffffffffffffff16815260200190815260200160002060020154600360008973ffffffffffffffffffffffffffffffffffffffff1673ffffffffffffffffffffffffffffffffffffffff16815260200190815260200160002060030160009054906101000a900473ffffffffffffffffffffffffffffffffffffffff1680905093509350935093509193509193565b34600360003373ffffffffffffffffffffffffffffffffffffffff1673ffffffffffffffffffffffffffffffffffffffff1681526020019081526020016000206000016000828254019250508190555034600260008282540192505081905550565b60008060009054906101000a900473ffffffffffffffffffffffffffffffffffffffff1673ffffffffffffffffffffffffffffffffffffffff163373ffffffffffffffffffffffffffffffffffffffff1614610d4e576040517f08c379a00000000000000000000000000000000000000000000000000000000081526004018080602001828103825260138152602001807f536f727279206e6f74207065726d69747465640000000000000000000000000081525060200191505060405180910390fd5b600154905090565b6000610d62838361049f565b9050808301600360003373ffffffffffffffffffffffffffffffffffffffff1673ffffffffffffffffffffffffffffffffffffffff168152602001908152602001600020600001541015610e1e576040517f08c379a00000000000000000000000000000000000000000000000000000000081526004018080602001828103825260128152602001807f696e73756666696369656e742066756e6473000000000000000000000000000081525060200191505060405180910390fd5b806001600082825401925050819055508260026000828254039250508190555082600360003373ffffffffffffffffffffffffffffffffffffffff1673ffffffffffffffffffffffffffffffffffffffff1681526020019081526020016000206000016000828254039250508190555082600360003373ffffffffffffffffffffffffffffffffffffffff1673ffffffffffffffffffffffffffffffffffffffff16815260200190815260200160002060010160008282540192505081905550505050565b600080610eee610ada565b90506000610f6d82610f5f610f0e60015486610fff90919063ffffffff16565b600360008973ffffffffffffffffffffffffffffffffffffffff1673ffffffffffffffffffffffffffffffffffffffff16815260200190815260200160002060000154610f7990919063ffffffff16565b61104990919063ffffffff16565b90508092505050919050565b600080831415610f8c5760009050610ff9565b6000828402905082848281610f9d57fe5b0414610ff4576040517f08c379a000000000000000000000000000000000000000000000000000000000815260040180806020018281038252602181526020018061121a6021913960400191505060405180910390fd5b809150505b92915050565b600061104183836040518060400160405280601e81526020017f536166654d6174683a207375627472616374696f6e206f766572666c6f770000815250611093565b905092915050565b600061108b83836040518060400160405280601a81526020017f536166654d6174683a206469766973696f6e206279207a65726f000000000000815250611153565b905092915050565b6000838311158290611140576040517f08c379a00000000000000000000000000000000000000000000000000000000081526004018080602001828103825283818151815260200191508051906020019080838360005b838110156111055780820151818401526020810190506110ea565b50505050905090810190601f1680156111325780820380516001836020036101000a031916815260200191505b509250505060405180910390fd5b5060008385039050809150509392505050565b600080831182906111ff576040517f08c379a00000000000000000000000000000000000000000000000000000000081526004018080602001828103825283818151815260200191508051906020019080838360005b838110156111c45780820151818401526020810190506111a9565b50505050905090810190601f1680156111f15780820380516001836020036101000a031916815260200191505b509250505060405180910390fd5b50600083858161120b57fe5b04905080915050939250505056fe536166654d6174683a206d756c7469706c69636174696f6e206f766572666c6f77a165627a7a72305820b977cfaab26f3cf196b0c2b3853595259581394a1b0e65fd86d933e281d7ec9b0029",
  "source": "pragma solidity >=0.4.21 <0.6.0;\n\nimport \"./SafeMath.sol\";\n\ncontract CrossSync {\n    \n    using SafeMath for uint256;\n    \n    address admin;\n    \n    struct user {\n        uint256 valueToThePool;\n        uint256 valueForExchange;\n        uint256 pendingExchangeMoney;\n        address payable userAddress;\n    }\n    \n    constructor() public {\n        admin = msg.sender;\n    }\n    \n    uint256 overheadGlobal;\n    uint256 totalPoolAmount;\n    \n    mapping(address => user) userDetails;\n    \n    modifier isAdmin {\n        require(msg.sender == admin,\"Sorry not permitted\");\n        _;\n    }\n    \n    // @EXCHANGE MONEY\n    \n    // in case user wants to add money directly\n\n    function deposit() public payable {\n        userDetails[msg.sender].valueToThePool += msg.value;\n        totalPoolAmount += msg.value;\n    }\n    \n    function refund(address payable addr,uint256 value) public {\n        require(userDetails[addr].valueToThePool > value,\"Insufficient funds requested\");\n        addr.transfer(value);\n        userDetails[addr].valueToThePool -= value;\n        totalPoolAmount -= value;\n    }\n\n    function addExchangeMoney(uint256 overheadPercentage) payable public {\n        uint256 overhead = overheadPercentageValue(msg.value,overheadPercentage);\n        userDetails[msg.sender].valueForExchange += msg.value.sub(overhead);\n        overheadGlobal += overhead;\n    }\n    \n    function addExchangeMoneyFromPool(uint256 amount, uint256 overheadPercentage) public {\n        \n        uint256 overhead = overheadPercentageValue(amount,overheadPercentage);\n        require(userDetails[msg.sender].valueToThePool >= (amount+overhead),\"insufficient funds\");\n        \n        overheadGlobal += overhead;\n        totalPoolAmount -= amount;\n        userDetails[msg.sender].valueToThePool-=amount;\n        userDetails[msg.sender].valueForExchange += amount;\n    \n    }\n    \n    // for admin, to record that the money has been transfered to the user account on the harmony chain, after it was recorded in the ethereum chain\n    function redeemExchangeMoney(address addr,uint256 amount) isAdmin public {\n        require(userDetails[addr].valueForExchange >= amount,\"insufficient funds\");\n        userDetails[addr].valueForExchange -= amount;\n    }\n        \n    // money deposited in the harmony contract, now equivalent is delivered here on ethereum\n    function transferEquivalentAmount(address payable addr, uint256 value) isAdmin public {\n        require(address(this).balance >= value,\"Insufficient Collatoral\");\n        addr.transfer(value);\n    }\n    \n    // transaction and fees calulation\n    \n    function overheadPercentageValue(uint256 value,uint overheadPercentage) public pure returns(uint256) {\n        uint256 overheadInterest = (value * overheadPercentage)/100;\n        return overheadInterest;\n    }\n    \n    function updateBalance(address payable add,uint interestRate,uint timeInYears) public{\n        userDetails[add].valueToThePool = userDetails[add].valueToThePool.mul(interestRate.mul(timeInYears));\n    }\n    \n    \n    \n    // interest calculation for liquidators\n    \n    function moneyRecievedByLiquidator(address add) public view returns (uint256){\n        uint256 balance = returnTotolPoolMoney();\n        \n        // protocolShare = share of CrossSync and totalOverAmount - protocolShare\n        uint256 share = (userDetails[add].valueToThePool.mul(balance.sub(overheadGlobal))).div(balance);\n\n        return share;\n    }\n    \n        \n    // get contract details\n    \n    function getMoney() view public returns(uint256 money){\n        return address(this).balance;\n    }\n    \n    function getUserDetails(address addr) public view returns(  uint256 valueToThePool,\n        uint256 valueForExchange,\n        uint256 pendingExchangeMoney,\n        address userAddress){\n        return (userDetails[addr].valueToThePool, userDetails[addr].valueForExchange,userDetails[addr].pendingExchangeMoney,userDetails[addr].userAddress);\n    }\n    \n    function returnOverheadValues() public isAdmin view returns(uint256){\n        return overheadGlobal;\n    } \n    \n    function returnTotolPoolMoney() public view returns(uint256){\n        return totalPoolAmount;\n    }\n\n}",
  "sourcePath": "/home/rachit/Projects/Cross-Sync/protocol/contracts/CrossSync.sol",
  "compiler": {
    "name": "solc",
    "version": "0.5.8+commit.23d335f2.Emscripten.clang"
  },
  "schemaVersion": "3.2.0",
  "updatedAt": "2020-09-30T10:45:29.517Z",
  "networkType": "ethereum",
  "devdoc": {
    "methods": {}
  },
  "userdoc": {
    "methods": {}
  }
}