{
  "contractName": "CrossSync",
  "abi": [
    {
      "inputs": [],
      "stateMutability": "nonpayable",
      "type": "constructor"
    },
    {
      "inputs": [],
      "name": "deposit",
      "outputs": [],
      "stateMutability": "payable",
      "type": "function",
      "payable": true
    },
    {
      "inputs": [
        {
          "internalType": "address payable",
          "name": "addr",
          "type": "address"
        },
        {
          "internalType": "uint256",
          "name": "value",
          "type": "uint256"
        }
      ],
      "name": "refund",
      "outputs": [],
      "stateMutability": "nonpayable",
      "type": "function"
    },
    {
      "inputs": [
        {
          "internalType": "uint256",
          "name": "overheadPercentage",
          "type": "uint256"
        }
      ],
      "name": "addExchangeMoney",
      "outputs": [],
      "stateMutability": "payable",
      "type": "function",
      "payable": true
    },
    {
      "inputs": [
        {
          "internalType": "uint256",
          "name": "amount",
          "type": "uint256"
        },
        {
          "internalType": "uint256",
          "name": "overheadPercentage",
          "type": "uint256"
        }
      ],
      "name": "addExchangeMoneyFromPool",
      "outputs": [],
      "stateMutability": "nonpayable",
      "type": "function"
    },
    {
      "inputs": [
        {
          "internalType": "address",
          "name": "addr",
          "type": "address"
        },
        {
          "internalType": "uint256",
          "name": "amount",
          "type": "uint256"
        }
      ],
      "name": "redeemExchangeMoney",
      "outputs": [],
      "stateMutability": "nonpayable",
      "type": "function"
    },
    {
      "inputs": [
        {
          "internalType": "address payable",
          "name": "addr",
          "type": "address"
        },
        {
          "internalType": "uint256",
          "name": "value",
          "type": "uint256"
        }
      ],
      "name": "transferEquivalentAmount",
      "outputs": [],
      "stateMutability": "nonpayable",
      "type": "function"
    },
    {
      "inputs": [
        {
          "internalType": "uint256",
          "name": "value",
          "type": "uint256"
        },
        {
          "internalType": "uint256",
          "name": "overheadPercentage",
          "type": "uint256"
        }
      ],
      "name": "overheadPercentageValue",
      "outputs": [
        {
          "internalType": "uint256",
          "name": "",
          "type": "uint256"
        }
      ],
      "stateMutability": "pure",
      "type": "function",
      "constant": true
    },
    {
      "inputs": [
        {
          "internalType": "address payable",
          "name": "add",
          "type": "address"
        },
        {
          "internalType": "uint256",
          "name": "interestRate",
          "type": "uint256"
        },
        {
          "internalType": "uint256",
          "name": "timeInYears",
          "type": "uint256"
        }
      ],
      "name": "updateBalance",
      "outputs": [],
      "stateMutability": "nonpayable",
      "type": "function"
    },
    {
      "inputs": [
        {
          "internalType": "address",
          "name": "add",
          "type": "address"
        }
      ],
      "name": "moneyRecievedByLiquidator",
      "outputs": [
        {
          "internalType": "uint256",
          "name": "",
          "type": "uint256"
        }
      ],
      "stateMutability": "view",
      "type": "function",
      "constant": true
    },
    {
      "inputs": [],
      "name": "withdraw",
      "outputs": [
        {
          "internalType": "bool",
          "name": "",
          "type": "bool"
        }
      ],
      "stateMutability": "nonpayable",
      "type": "function"
    },
    {
      "inputs": [],
      "name": "getMoney",
      "outputs": [
        {
          "internalType": "uint256",
          "name": "money",
          "type": "uint256"
        }
      ],
      "stateMutability": "view",
      "type": "function",
      "constant": true
    },
    {
      "inputs": [
        {
          "internalType": "address",
          "name": "addr",
          "type": "address"
        }
      ],
      "name": "getUserDetails",
      "outputs": [
        {
          "internalType": "uint256",
          "name": "valueToThePool",
          "type": "uint256"
        },
        {
          "internalType": "uint256",
          "name": "valueForExchange",
          "type": "uint256"
        },
        {
          "internalType": "uint256",
          "name": "pendingExchangeMoney",
          "type": "uint256"
        },
        {
          "internalType": "address",
          "name": "userAddress",
          "type": "address"
        }
      ],
      "stateMutability": "view",
      "type": "function",
      "constant": true
    },
    {
      "inputs": [],
      "name": "returnOverheadValues",
      "outputs": [
        {
          "internalType": "uint256",
          "name": "",
          "type": "uint256"
        }
      ],
      "stateMutability": "view",
      "type": "function",
      "constant": true
    },
    {
      "inputs": [],
      "name": "returnTotolPoolMoney",
      "outputs": [
        {
          "internalType": "uint256",
          "name": "",
          "type": "uint256"
        }
      ],
      "stateMutability": "view",
      "type": "function",
      "constant": true
    }
  ],
  "bytecode": "0x608060405234801561001057600080fd5b50336000806101000a81548173ffffffffffffffffffffffffffffffffffffffff021916908373ffffffffffffffffffffffffffffffffffffffff16021790555061135e806100606000396000f3fe6080604052600436106100dd5760003560e01c8063b0b4696f1161007f578063d0e30db011610059578063d0e30db0146103f2578063d878d103146103fc578063dedc8dfe14610427578063f828f5f41461046c576100dd565b8063b0b4696f14610309578063ca988c3414610337578063cc3d967b14610362576100dd565b8063410085df116100bb578063410085df146101c35780637c0915971461021e57806387d5173d1461027957806398e1b410146102de576100dd565b80630d0ef174146100e25780633ccfd60b1461013b5780633d1804fa14610168575b600080fd5b3480156100ee57600080fd5b506101256004803603604081101561010557600080fd5b8101908080359060200190929190803590602001909291905050506104d1565b6040518082815260200191505060405180910390f35b34801561014757600080fd5b506101506104ed565b60405180821515815260200191505060405180910390f35b34801561017457600080fd5b506101c16004803603604081101561018b57600080fd5b81019080803573ffffffffffffffffffffffffffffffffffffffff169060200190929190803590602001909291905050506105dc565b005b3480156101cf57600080fd5b5061021c600480360360408110156101e657600080fd5b81019080803573ffffffffffffffffffffffffffffffffffffffff169060200190929190803590602001909291905050506107a9565b005b34801561022a57600080fd5b506102776004803603604081101561024157600080fd5b81019080803573ffffffffffffffffffffffffffffffffffffffff1690602001909291908035906020019092919050505061090b565b005b34801561028557600080fd5b506102dc6004803603606081101561029c57600080fd5b81019080803573ffffffffffffffffffffffffffffffffffffffff1690602001909291908035906020019092919080359060200190929190505050610a8d565b005b3480156102ea57600080fd5b506102f3610b3f565b6040518082815260200191505060405180910390f35b6103356004803603602081101561031f57600080fd5b8101908080359060200190929190505050610b47565b005b34801561034357600080fd5b5061034c610bcb565b6040518082815260200191505060405180910390f35b34801561036e57600080fd5b506103b16004803603602081101561038557600080fd5b81019080803573ffffffffffffffffffffffffffffffffffffffff169060200190929190505050610bd5565b604051808581526020018481526020018381526020018273ffffffffffffffffffffffffffffffffffffffff16815260200194505050505060405180910390f35b6103fa610d16565b005b34801561040857600080fd5b50610411610d78565b6040518082815260200191505060405180910390f35b34801561043357600080fd5b5061046a6004803603604081101561044a57600080fd5b810190808035906020019092919080359060200190929190505050610e44565b005b34801561047857600080fd5b506104bb6004803603602081101561048f57600080fd5b81019080803573ffffffffffffffffffffffffffffffffffffffff169060200190929190505050610fd1565b6040518082815260200191505060405180910390f35b6000806064838502816104e057fe5b0490508091505092915050565b6000806104f933610fd1565b90506000600360003373ffffffffffffffffffffffffffffffffffffffff1673ffffffffffffffffffffffffffffffffffffffff16815260200190815260200160002060000154820190506000600360003373ffffffffffffffffffffffffffffffffffffffff1673ffffffffffffffffffffffffffffffffffffffff168152602001908152602001600020600001819055503373ffffffffffffffffffffffffffffffffffffffff166108fc829081150290604051600060405180830381858888f193505050501580156105d2573d6000803e3d6000fd5b5060019250505090565b60008054906101000a900473ffffffffffffffffffffffffffffffffffffffff1673ffffffffffffffffffffffffffffffffffffffff163373ffffffffffffffffffffffffffffffffffffffff161461069d576040517f08c379a00000000000000000000000000000000000000000000000000000000081526004018080602001828103825260138152602001807f536f727279206e6f74207065726d69747465640000000000000000000000000081525060200191505060405180910390fd5b80600360008473ffffffffffffffffffffffffffffffffffffffff1673ffffffffffffffffffffffffffffffffffffffff168152602001908152602001600020600101541015610755576040517f08c379a00000000000000000000000000000000000000000000000000000000081526004018080602001828103825260128152602001807f696e73756666696369656e742066756e6473000000000000000000000000000081525060200191505060405180910390fd5b80600360008473ffffffffffffffffffffffffffffffffffffffff1673ffffffffffffffffffffffffffffffffffffffff168152602001908152602001600020600101600082825403925050819055505050565b80600360008473ffffffffffffffffffffffffffffffffffffffff1673ffffffffffffffffffffffffffffffffffffffff1681526020019081526020016000206000015411610860576040517f08c379a000000000000000000000000000000000000000000000000000000000815260040180806020018281038252601c8152602001807f496e73756666696369656e742066756e6473207265717565737465640000000081525060200191505060405180910390fd5b8173ffffffffffffffffffffffffffffffffffffffff166108fc829081150290604051600060405180830381858888f193505050501580156108a6573d6000803e3d6000fd5b5080600360008473ffffffffffffffffffffffffffffffffffffffff1673ffffffffffffffffffffffffffffffffffffffff16815260200190815260200160002060000160008282540392505081905550806002600082825403925050819055505050565b60008054906101000a900473ffffffffffffffffffffffffffffffffffffffff1673ffffffffffffffffffffffffffffffffffffffff163373ffffffffffffffffffffffffffffffffffffffff16146109cc576040517f08c379a00000000000000000000000000000000000000000000000000000000081526004018080602001828103825260138152602001807f536f727279206e6f74207065726d69747465640000000000000000000000000081525060200191505060405180910390fd5b80471015610a42576040517f08c379a00000000000000000000000000000000000000000000000000000000081526004018080602001828103825260178152602001807f496e73756666696369656e7420436f6c6c61746f72616c00000000000000000081525060200191505060405180910390fd5b8173ffffffffffffffffffffffffffffffffffffffff166108fc829081150290604051600060405180830381858888f19350505050158015610a88573d6000803e3d6000fd5b505050565b610af4610aa3828461106790919063ffffffff16565b600360008673ffffffffffffffffffffffffffffffffffffffff1673ffffffffffffffffffffffffffffffffffffffff1681526020019081526020016000206000015461106790919063ffffffff16565b600360008573ffffffffffffffffffffffffffffffffffffffff1673ffffffffffffffffffffffffffffffffffffffff16815260200190815260200160002060000181905550505050565b600047905090565b6000610b5334836104d1565b9050610b6881346110ed90919063ffffffff16565b600360003373ffffffffffffffffffffffffffffffffffffffff1673ffffffffffffffffffffffffffffffffffffffff16815260200190815260200160002060010160008282540192505081905550806001600082825401925050819055505050565b6000600254905090565b600080600080600360008673ffffffffffffffffffffffffffffffffffffffff1673ffffffffffffffffffffffffffffffffffffffff16815260200190815260200160002060000154600360008773ffffffffffffffffffffffffffffffffffffffff1673ffffffffffffffffffffffffffffffffffffffff16815260200190815260200160002060010154600360008873ffffffffffffffffffffffffffffffffffffffff1673ffffffffffffffffffffffffffffffffffffffff16815260200190815260200160002060020154600360008973ffffffffffffffffffffffffffffffffffffffff1673ffffffffffffffffffffffffffffffffffffffff16815260200190815260200160002060030160009054906101000a900473ffffffffffffffffffffffffffffffffffffffff1693509350935093509193509193565b34600360003373ffffffffffffffffffffffffffffffffffffffff1673ffffffffffffffffffffffffffffffffffffffff1681526020019081526020016000206000016000828254019250508190555034600260008282540192505081905550565b60008060009054906101000a900473ffffffffffffffffffffffffffffffffffffffff1673ffffffffffffffffffffffffffffffffffffffff163373ffffffffffffffffffffffffffffffffffffffff1614610e3c576040517f08c379a00000000000000000000000000000000000000000000000000000000081526004018080602001828103825260138152602001807f536f727279206e6f74207065726d69747465640000000000000000000000000081525060200191505060405180910390fd5b600154905090565b6000610e5083836104d1565b9050808301600360003373ffffffffffffffffffffffffffffffffffffffff1673ffffffffffffffffffffffffffffffffffffffff168152602001908152602001600020600001541015610f0c576040517f08c379a00000000000000000000000000000000000000000000000000000000081526004018080602001828103825260128152602001807f696e73756666696369656e742066756e6473000000000000000000000000000081525060200191505060405180910390fd5b806001600082825401925050819055508260026000828254039250508190555082600360003373ffffffffffffffffffffffffffffffffffffffff1673ffffffffffffffffffffffffffffffffffffffff1681526020019081526020016000206000016000828254039250508190555082600360003373ffffffffffffffffffffffffffffffffffffffff1673ffffffffffffffffffffffffffffffffffffffff16815260200190815260200160002060010160008282540192505081905550505050565b600080610fdc610bcb565b9050600061105b8261104d610ffc600154866110ed90919063ffffffff16565b600360008973ffffffffffffffffffffffffffffffffffffffff1673ffffffffffffffffffffffffffffffffffffffff1681526020019081526020016000206000015461106790919063ffffffff16565b61113790919063ffffffff16565b90508092505050919050565b60008083141561107a57600090506110e7565b600082840290508284828161108b57fe5b04146110e2576040517f08c379a00000000000000000000000000000000000000000000000000000000081526004018080602001828103825260218152602001806113086021913960400191505060405180910390fd5b809150505b92915050565b600061112f83836040518060400160405280601e81526020017f536166654d6174683a207375627472616374696f6e206f766572666c6f770000815250611181565b905092915050565b600061117983836040518060400160405280601a81526020017f536166654d6174683a206469766973696f6e206279207a65726f000000000000815250611241565b905092915050565b600083831115829061122e576040517f08c379a00000000000000000000000000000000000000000000000000000000081526004018080602001828103825283818151815260200191508051906020019080838360005b838110156111f35780820151818401526020810190506111d8565b50505050905090810190601f1680156112205780820380516001836020036101000a031916815260200191505b509250505060405180910390fd5b5060008385039050809150509392505050565b600080831182906112ed576040517f08c379a00000000000000000000000000000000000000000000000000000000081526004018080602001828103825283818151815260200191508051906020019080838360005b838110156112b2578082015181840152602081019050611297565b50505050905090810190601f1680156112df5780820380516001836020036101000a031916815260200191505b509250505060405180910390fd5b5060008385816112f957fe5b04905080915050939250505056fe536166654d6174683a206d756c7469706c69636174696f6e206f766572666c6f77a264697066735822122025f59bc37ad0a9f502078635bae23c91c082b121ed8595484eac6d19f682ee4464736f6c63430007000033",
  "immutableReferences": {},
  "source": "pragma solidity >=0.4.21 <0.8.0;\n\nimport \"./SafeMath.sol\";\n\ncontract CrossSync {\n    \n    using SafeMath for uint256;\n    \n    address admin;\n    \n    struct user {\n        uint256 valueToThePool;\n        uint256 valueForExchange;\n        uint256 pendingExchangeMoney;\n        address payable userAddress;\n    }\n    \n    constructor() public {\n        admin = msg.sender;\n    }\n    \n    uint256 overheadGlobal;\n    uint256 totalPoolAmount;\n    \n    mapping(address => user) userDetails;\n    \n    modifier isAdmin {\n        require(msg.sender == admin,\"Sorry not permitted\");\n        _;\n    }\n    \n    // @EXCHANGE MONEY\n    \n    // in case user wants to add money directly\n\n    function deposit() public payable {\n        userDetails[msg.sender].valueToThePool += msg.value;\n        totalPoolAmount += msg.value;\n    }\n    \n    function refund(address payable addr,uint256 value) public {\n        require(userDetails[addr].valueToThePool > value,\"Insufficient funds requested\");\n        addr.transfer(value);\n        userDetails[addr].valueToThePool -= value;\n        totalPoolAmount -= value;\n    }\n\n    function addExchangeMoney(uint256 overheadPercentage) payable public {\n        uint256 overhead = overheadPercentageValue(msg.value,overheadPercentage);\n        userDetails[msg.sender].valueForExchange += msg.value.sub(overhead);\n        overheadGlobal += overhead;\n    }\n    \n    function addExchangeMoneyFromPool(uint256 amount, uint256 overheadPercentage) public {\n        \n        uint256 overhead = overheadPercentageValue(amount,overheadPercentage);\n        require(userDetails[msg.sender].valueToThePool >= (amount+overhead),\"insufficient funds\");\n        \n        overheadGlobal += overhead;\n        totalPoolAmount -= amount;\n        userDetails[msg.sender].valueToThePool-=amount;\n        userDetails[msg.sender].valueForExchange += amount;\n    \n    }\n    \n    // for admin, to record that the money has been transfered to the user account on the harmony chain, after it was recorded in the ethereum chain\n    function redeemExchangeMoney(address addr,uint256 amount) isAdmin public {\n        require(userDetails[addr].valueForExchange >= amount,\"insufficient funds\");\n        userDetails[addr].valueForExchange -= amount;\n    }\n        \n    // money deposited in the harmony contract, now equivalent is delivered here on ethereum\n    function transferEquivalentAmount(address payable addr, uint256 value) isAdmin public {\n        require(address(this).balance >= value,\"Insufficient Collatoral\");\n        addr.transfer(value);\n    }\n    \n    // transaction and fees calulation\n    \n    function overheadPercentageValue(uint256 value,uint overheadPercentage) public pure returns(uint256) {\n        uint256 overheadInterest = (value * overheadPercentage)/100;\n        return overheadInterest;\n    }\n    \n    function updateBalance(address payable add,uint interestRate,uint timeInYears) public{\n        userDetails[add].valueToThePool = userDetails[add].valueToThePool.mul(interestRate.mul(timeInYears));\n    }\n    \n    \n    \n    // interest calculation for liquidators\n    \n    function moneyRecievedByLiquidator(address add) public view returns (uint256){\n        uint256 balance = returnTotolPoolMoney();\n        \n        // protocolShare = share of CrossSync and totalOverAmount - protocolShare\n        uint256 share = (userDetails[add].valueToThePool.mul(balance.sub(overheadGlobal))).div(balance);\n\n        return share;\n    }\n    \n\n    function withdraw() public returns (bool) {\n        uint256 addition = moneyRecievedByLiquidator(msg.sender);\n        uint256 amount = addition + userDetails[msg.sender].valueToThePool;\n        userDetails[msg.sender].valueToThePool = 0;\n        msg.sender.transfer(amount);\n        return true;\n    }\n        \n    // get contract details\n    \n    function getMoney() view public returns(uint256 money){\n        return address(this).balance;\n    }\n    \n    function getUserDetails(address addr) public view returns(  uint256 valueToThePool,\n        uint256 valueForExchange,\n        uint256 pendingExchangeMoney,\n        address userAddress){\n        return (userDetails[addr].valueToThePool, userDetails[addr].valueForExchange,userDetails[addr].pendingExchangeMoney,userDetails[addr].userAddress);\n    }\n    \n    function returnOverheadValues() public isAdmin view returns(uint256){\n        return overheadGlobal;\n    } \n    \n    function returnTotolPoolMoney() public view returns(uint256){\n        return totalPoolAmount;\n    }\n\n}",
  "sourcePath": "/home/rachit/Projects/Cross-Sync-Conflux/protocol/ethereum/contracts/CrossSync.sol",
  "compiler": {
    "name": "solc",
    "version": "0.7.0+commit.9e61f92b.Emscripten.clang"
  },
  "schemaVersion": "3.2.1",
  "updatedAt": "2020-11-23T00:04:21.133Z",
  "networkType": "ethereum",
  "devdoc": {
    "kind": "dev",
    "methods": {},
    "version": 1
  },
  "userdoc": {
    "kind": "user",
    "methods": {},
    "version": 1
  }
}